{
    "txid": "7b97c02e171b7805f46c3ee7ec2c1240505c176e613c50417700bcc15d1faa02",
    "hash": "7b97c02e171b7805f46c3ee7ec2c1240505c176e613c50417700bcc15d1faa02",
    "version": 2,
    "size": 341,
    "locktime": 0,
    "vin": [
        {
            "txid": "b791c96cd1016b18beb1e4bfbd38e54159dfe1a66368e7d3c016c6371ae7fce5",
            "vout": 0,
            "scriptSig": {
                "asm": "59cfe21459fc9709f37ffe406c9eec1fdfff21d5ee2a34e3a2154f81f4fcf8d2ea52e4684ed76b0a1f3e947f56c288ba95ebf40709d9040a7d2b109b3ee75703[ALL|FORKID] 035a471e7f2085595dbc519799ab6783a17e65670a3356679176a3153fa602d166",
                "hex": "4159cfe21459fc9709f37ffe406c9eec1fdfff21d5ee2a34e3a2154f81f4fcf8d2ea52e4684ed76b0a1f3e947f56c288ba95ebf40709d9040a7d2b109b3ee757034121035a471e7f2085595dbc519799ab6783a17e65670a3356679176a3153fa602d166"
            },
            "sequence": 0,
            "value": 0.00001000
        },
        {
            "txid": "b791c96cd1016b18beb1e4bfbd38e54159dfe1a66368e7d3c016c6371ae7fce5",
            "vout": 1001,
            "scriptSig": {
                "asm": "a5f3ce22336f321f98a40e9db06846f340476f44018172c94c4d2b9a3a22e9e8892bc43ff9bf1800ae4fa13c2f438445902435a8f4c67ae844304c52fa595568[ALL|FORKID] 035a471e7f2085595dbc519799ab6783a17e65670a3356679176a3153fa602d166",
                "hex": "41a5f3ce22336f321f98a40e9db06846f340476f44018172c94c4d2b9a3a22e9e8892bc43ff9bf1800ae4fa13c2f438445902435a8f4c67ae844304c52fa5955684121035a471e7f2085595dbc519799ab6783a17e65670a3356679176a3153fa602d166"
            },
            "sequence": 0,
            "value": 0.08395545
        }
    ],
    "vout": [
        {
            "value": 0E-8,
            "n": 0,
            "scriptPubKey": {
                "asm": "OP_RETURN 1852994914",
                "hex": "6a046275726e",
                "type": "nulldata"
            }
        },
        {
            "value": 0.08396203,
            "n": 1,
            "scriptPubKey": {
                "asm": "OP_DUP OP_HASH160 2a495c9dc2410334f24bd217125c10ca9cfe87fd OP_EQUALVERIFY OP_CHECKSIG",
                "hex": "76a9142a495c9dc2410334f24bd217125c10ca9cfe87fd88ac",
                "reqSigs": 1,
                "type": "pubkeyhash",
                "addresses": [
                    "bitcoincash:qq4yjhyacfqsxd8jf0fpwyjuzr9fel58l5a2ju6yzs"
                ]
            }
        }
    ],
    "hex": "0200000002e5fce71a37c616c0d3e76863a6e1df5941e538bdbfe4b1be186b01d16cc991b700000000644159cfe21459fc9709f37ffe406c9eec1fdfff21d5ee2a34e3a2154f81f4fcf8d2ea52e4684ed76b0a1f3e947f56c288ba95ebf40709d9040a7d2b109b3ee757034121035a471e7f2085595dbc519799ab6783a17e65670a3356679176a3153fa602d16600000000e5fce71a37c616c0d3e76863a6e1df5941e538bdbfe4b1be186b01d16cc991b7e90300006441a5f3ce22336f321f98a40e9db06846f340476f44018172c94c4d2b9a3a22e9e8892bc43ff9bf1800ae4fa13c2f438445902435a8f4c67ae844304c52fa5955684121035a471e7f2085595dbc519799ab6783a17e65670a3356679176a3153fa602d16600000000020000000000000000066a046275726eab1d8000000000001976a9142a495c9dc2410334f24bd217125c10ca9cfe87fd88ac00000000",
    "blockhash": "0000000000000000009e8772e8acb720f7a7784497c5e96f5a8328961ee260bd",
    "confirmations": 1665,
    "time": 1685537180,
    "blocktime": 1685537180,
    "fee": 0.00000342
}
