{"txid": "afa991b6455156d355970e75890fe1d8f87fd664edf34d04568d617187af8dd1", "hash": "afa991b6455156d355970e75890fe1d8f87fd664edf34d04568d617187af8dd1", "version": 2, "size": 740, "locktime": 796721, "vin": [{"txid": "5fae254b60960aa9648f9871768fa42f90d951a0167fae3f59ef8e21dba06523", "vout": 0, "scriptSig": {"asm": "0 04971a897c14f9c8b64688ae2ac25d092ea385fc9ba8f4457be802102703a02e635479009c63537a00ce547f7588c0009dc3529d00cd00c78800d100ce8800cc00c65279939d00cf527f7781768b537aa16900d202feed52798b52807e8802e80351cc789d51cd51c78851d100ce01207f758851d27b8b52808802200351c6537a947c947c94760222029f63c4529d67c4539d52cc789d52d1008851c752cd788875686d7551675479519c635579a9537988567a567aadc3519d00ce827700a06300cf527f77817653799c00c602c608a19a63c4519d00d1008867c4529d00cc02e8039d00d100ce8800cf00d28800cd00c78802bc0251cc00c652799400cc949d51d1008851cd0376a91456797e0288ac7e88756875686d6d755167547a529d5479a9537a88547a547aadc3529dc0009d00ce827700a06900cc00c69d00d100ce8800cf00d28800cd00c788c4539d52d1008851c752cd8851cd567f75066a0442434d528851d100877777776868", "hex": "004d6e0104971a897c14f9c8b64688ae2ac25d092ea385fc9ba8f4457be802102703a02e635479009c63537a00ce547f7588c0009dc3529d00cd00c78800d100ce8800cc00c65279939d00cf527f7781768b537aa16900d202feed52798b52807e8802e80351cc789d51cd51c78851d100ce01207f758851d27b8b52808802200351c6537a947c947c94760222029f63c4529d67c4539d52cc789d52d1008851c752cd788875686d7551675479519c635579a9537988567a567aadc3519d00ce827700a06300cf527f77817653799c00c602c608a19a63c4519d00d1008867c4529d00cc02e8039d00d100ce8800cf00d28800cd00c78802bc0251cc00c652799400cc949d51d1008851cd0376a91456797e0288ac7e88756875686d6d755167547a529d5479a9537a88547a547aadc3529dc0009d00ce827700a06900cc00c69d00d100ce8800cf00d28800cd00c788c4539d52d1008851c752cd8851cd567f75066a0442434d528851d100877777776868"}, "sequence": 4294967294, "value": 3.83501000}, {"txid": "e113a42cf9454b0a9a10fc57f77d1521e5cace7c956df6610786ef5f13401cf0", "vout": 0, "scriptSig": {"asm": "4064a542b53a647d49db75f9baf67e111c6163ce819ce01093f193d2de6ed3130fad807884a31727f8fff3f732cc4d8f80265e4f93dcfbda2e34e38d571c2e37[ALL|FORKID] 03b79c791ea3f4e5179c891724e2c89f2b382010106bebaf03cdbf1d2dc52e9666", "hex": "414064a542b53a647d49db75f9baf67e111c6163ce819ce01093f193d2de6ed3130fad807884a31727f8fff3f732cc4d8f80265e4f93dcfbda2e34e38d571c2e37412103b79c791ea3f4e5179c891724e2c89f2b382010106bebaf03cdbf1d2dc52e9666"}, "sequence": 4294967294, "value": 0.13035322}], "vout": [{"value": 3.90001000, "n": 0, "scriptPubKey": {"asm": "OP_HASH160 5cc930ced1dc748fc539e04eb763d45bde53fe34 OP_EQUAL", "hex": "a9145cc930ced1dc748fc539e04eb763d45bde53fe3487", "reqSigs": 1, "type": "scripthash", "addresses": ["bitcoincash:ppwvjvxw68w8fr7988syadmr63dau5l7xsqjrs7p0p"]}, "tokenData": {"category": "07275f68d14780c737279898e730cec3a7b189a761caf43b4197b60a7c891a97", "amount": "0", "nft": {"capability": "minting", "commitment": "feed0503"}}}, {"value": 0.00001000, "n": 1, "scriptPubKey": {"asm": "OP_DUP OP_HASH160 d6ed1ba301902e54e451639ffa52c3c769833a02 OP_EQUALVERIFY OP_CHECKSIG", "hex": "76a914d6ed1ba301902e54e451639ffa52c3c769833a0288ac", "reqSigs": 1, "type": "pubkeyhash", "addresses": ["bitcoincash:qrtw6xarqxgzu48y293el7jjc0rknqe6qg663sk5ld"]}, "tokenData": {"category": "07275f68d14780c737279898e730cec3a7b189a761caf43b4197b60a7c891a97", "amount": "0", "nft": {"capability": "none", "commitment": "0503"}}}, {"value": 0.06533522, "n": 2, "scriptPubKey": {"asm": "OP_DUP OP_HASH160 d6ed1ba301902e54e451639ffa52c3c769833a02 OP_EQUALVERIFY OP_CHECKSIG", "hex": "76a914d6ed1ba301902e54e451639ffa52c3c769833a0288ac", "reqSigs": 1, "type": "pubkeyhash", "addresses": ["bitcoincash:qrtw6xarqxgzu48y293el7jjc0rknqe6qg663sk5ld"]}}], "hex": "02000000022365a0db218eef593fae7f16a051d9902fa48f7671988f64a90a96604b25ae5f00000000fd7201004d6e0104971a897c14f9c8b64688ae2ac25d092ea385fc9ba8f4457be802102703a02e635479009c63537a00ce547f7588c0009dc3529d00cd00c78800d100ce8800cc00c65279939d00cf527f7781768b537aa16900d202feed52798b52807e8802e80351cc789d51cd51c78851d100ce01207f758851d27b8b52808802200351c6537a947c947c94760222029f63c4529d67c4539d52cc789d52d1008851c752cd788875686d7551675479519c635579a9537988567a567aadc3519d00ce827700a06300cf527f77817653799c00c602c608a19a63c4519d00d1008867c4529d00cc02e8039d00d100ce8800cf00d28800cd00c78802bc0251cc00c652799400cc949d51d1008851cd0376a91456797e0288ac7e88756875686d6d755167547a529d5479a9537a88547a547aadc3529dc0009d00ce827700a06900cc00c69d00d100ce8800cf00d28800cd00c788c4539d52d1008851c752cd8851cd567f75066a0442434d528851d100877777776868fefffffff01c40135fef860761f66d957ccecae521157df757fc109a0a4b45f92ca413e10000000064414064a542b53a647d49db75f9baf67e111c6163ce819ce01093f193d2de6ed3130fad807884a31727f8fff3f732cc4d8f80265e4f93dcfbda2e34e38d571c2e37412103b79c791ea3f4e5179c891724e2c89f2b382010106bebaf03cdbf1d2dc52e9666feffffff0368f13e17000000003eef971a897c0ab697413bf4ca61a789b1a7c3ce30e798982737c78047d1685f27076204feed0503a9145cc930ced1dc748fc539e04eb763d45bde53fe3487e8030000000000003eef971a897c0ab697413bf4ca61a789b1a7c3ce30e798982737c78047d1685f27076002050376a914d6ed1ba301902e54e451639ffa52c3c769833a0288ac92b16300000000001976a914d6ed1ba301902e54e451639ffa52c3c769833a0288ac31280c00", "blockhash": "000000000000000002f928dde08f73546a57f17057e16624c48b4546a520bced", "confirmations": 5, "time": 1686531016, "blocktime": 1686531016, "fee": 0.00000800}